:040000008A11112828
:10000800FE00030E83120313AC000408AD000A08B7
:10001800AE007F08AF008A112E288A111328831397
:100028003D30FD000230FE006630FF0031308400B4
:100038008A1159228A11BD01BE01BF01C001C10147
:10004800C201C301C401FA01FB01FC01FD018301E6
:100058008A110A2A831603130C1C332834287E2895
:10006800831203130C1C39283A287E288A11792216
:100078008A11831203130C1041084204031D4528FA
:1000880046287E280130C3070318C40A0030C40775
:1000980000304402643003194302031C54285528D5
:1000A8007E28C301C4017D08031D68287C08031D40
:1000B800682803307B02031D6528E7307A02031D98
:1000C80065280318682869287E280130FA07003057
:1000D80003180130FB07003003180130FC0700301B
:1000E80003180130FD077B08F9007A08F8008A1127
:1000F800D3208A118B1D81288228C6280B1C8528AD
:100108008628C62883120313061C8B288C28A1284E
:100118003F084004031D91289228A1284108420461
:1001280003199728992801309A280030AA00AB01B2
:100138002A08C1002B08C200B528861CA428A528B7
:10014800B5283D083E04031DAA28AB28B528003071
:10015800FD000030FC000030FB000030FA00C30155
:10016800C4010B1006080139AA00AB012A08BF0018
:100178002B08C000060C0139AA00AB012A08BD00F3
:100188002B08BE00831203132F08FF002E088A00D5
:100198002D0884002C0E8300FE0E7E0E09007908BF
:1001A800803AFF0080307F02031DDC28643078022B
:1001B8000318DF28E02810290A30F0000030F10089
:1001C8007908F3007808F2008A11B3218A117108BE
:1001D80083120313A1007008A0002008313E840098
:1001E80083130008BC000A30F0000030F1007908E1
:1001F800F3007808F2008A1150218A1171088312DD
:100208000313A3007008A2002208313E8400831360
:1002180000080838BB004F290A30F0000030F10010
:100228007908F3007808F2008A1150218A117108C0
:1002380083120313A9007008A8000A30F0000030E8
:10024800F1002908F3002808F2008A11B3218A1165
:10025800710883120313A5007008A4002408313E16
:10026800840083130008BC000A30F0000030F1005D
:100278002908F3002808F2008A1150218A11710810
:1002880083120313A7007008A6002608313E8400D5
:1002980083130008BB000800F501F11F54295529F4
:1002A8005C29F009F109F00A0319F10A0130F50097
:1002B800F31F5F2960296729F209F309F20A031974
:1002C800F30A0130F506F601F70170087104031905
:1002D8006E296F29A4290130F4007B29013003100D
:1002E800F00DF10DFF3E031D73290130F407F11FD6
:1002F8007E297F29722901300310F60DF70DFF3E84
:10030800031D802971087302031D8C29700872026D
:10031800031C8F29902997297008F2027108031C81
:10032800F303F302761401300310F10CF00CFF3ED6
:10033800031D98290130F402031DA329A4297F294C
:1003480075080319A829A929AE29F609F709F60A93
:100358000319F70A7708F1007608F0000800F5019C
:10036800F31FB729B829BF29F209F309F20A0319BB
:10037800F30A0130F500F11FC229C329C829F00981
:10038800F109F00A0319F10A700871040319CD295B
:10039800CE29FB290130F400DA2901300310F00DD1
:1003A800F10DFF3E031DD2290130F407F11FDD29AD
:1003B800DE29D12971087302031DE429700872022D
:1003C800031CE729E829EE297008F2027108031CCA
:1003D800F303F30201300310F10CF00CFF3E031D90
:1003E800EF290130F402031DFA29FB29DE297508DB
:1003F8000319FF29002A052AF209F309F20A031949
:10040800F30A7308F1007208F00008008316031756
:10041800880189018316031385010330860087014B
:100428008B178B15033096008A1140228A11FF30F2
:10043800831203138700831203133C0887000510F7
:100448008514C73083120313B0002A2AB00B292A57
:100458002D2A0000831203133B088700051485101A
:10046800C73083120313B000392AB00B382A3C2A4C
:1004780000001F2A8A111128831203131010101666
:100488009016901090118A1172228A118312031308
:100498000C10831603130C140B1783120313101478
:1004A80008007E088A007F0882008A1155228A1176
:1004B8008000840A04087D0603190034FF0A031922
:1004C800FE0A592A77341434B334B634D434E634B3
:1004D800E7343434F734F634FF34FF34FF30831212
:1004E80003138F007D308E000800FF308312031342
:0804F8008F007D308E0008002A
:04400E00F120FF3F5F
:00000001FF
