:040000008A110B282E
:10000800FE00030EF2000A08F3008A1110288A1174
:100018000D2883018A112E288230F100DD30F0008E
:10002800F00B1428F10B142819280B1C1C281D2868
:10003800272883120313061C2228232825280514A1
:10004800262805100B1073088A00720E8300FE0E16
:100058007E0E09008316031788018901831603138E
:100068008501013086008B178B15013096008312AD
:10007800031306184028442883120313051447283D
:0C00880083120313051047288A110B286F
:04400E00F120FF3F5F
:00000001FF
