:040000008A110D282C
:10000800FE00030EF4000A08F5007F08F6008A11C6
:100018002E288A110F2883133130FD000130FE008D
:100028002130FF00203084008A1136218A118A117C
:1000380051218A11F9008A1152218A11FA008A1174
:1000480053218A11FB00B101B201FC01FD018301BA
:100058008A11D928831603130C1C332834288828BE
:10006800831203130C1C39283A2888288A114A213C
:100078008A11831203130C107D08803AFF00803028
:100088007F02031D492806307C02031C4C284D289A
:100098005B288312031331033204031D54285528A7
:1000A8005B288701B101B201FC01FD018828831298
:1000B800031331083204031D6228632875280330AE
:1000C8007C067D04031D69286A287528E3308700AB
:1000D8000130B1000030B2000130FC000030FD00FA
:1000E80088287D08803AFF0080307F02031D7E2823
:1000F80001307C02031C8128822888280130FC07F3
:100108000318FD0A0030FD078B1D8B288C28D0288A
:100118000B1C8F289028D02883120313310832042F
:10012800031D97289828D028061C9B289C28A628B9
:100138008E018F018A114A218A110130FC0000309A
:10014800FD00CF280618A928AA28CF288A11F2204E
:100158008A117108F8007008F7007808803AFF00E3
:10016800F5307F02031DBA28303077020318BD2806
:10017800BE28C328F530831203138700C728083028
:100188008312031387000230FC000030FD000130A9
:10019800B1000030B2000B107608FF0075088A0025
:1001A800740E8300FE0E7E0E090083160317880165
:1001B80089018316031385010330860087018B1795
:1001C8008B15033096008A110A218A1183120313B2
:1001D800870105108514EF288A110D2879088312E4
:1001E80003130E02F2007A08031C7A0A0F02F300C6
:1001F8000310F20DF30D0310F20DF30D0310F20DC1
:10020800F30D7208F0007308F1000800831203135D
:10021800101010169016901090118E018F018A11EF
:1002280043218A11831203130C10831603130C1431
:100238000B17831203131014080077341434B334E3
:10024800B634D434E634E7343434F734F634F53499
:10025800C73463349734E334E134FF347E088A00CA
:100268007F0882008A1132218A118000840A0408DA
:100278007D0603190034FF0A0319FE0A36297A0895
:10028800831203138F0079088E0008007A088312FE
:1002980003138F0079088E000800B0343C34FF3413
:04400E00F120FF3F5F
:00000001FF
